:020000040800F2
:1000000000A000203D190008451800084B18000802
:1000100051180008571800085D180008000000007B
:10002000000000000000000000000000631800084D
:1000300071180008000000007F1800088D180008E3
:100040008D1900088D1900088D1900088D190008F8
:100050008D1900088D1900088D1900088D190008E8
:100060008D1900088D1900088D1900088D190008D8
:100070008D1900088D1900088D1900088D190008C8
:100080008D1900088D1900088D1900088D190008B8
:10009000991800088D1900088D1900088D1900089D
:1000A0008D1900088D1900088D1900088D19000898
:1000B0008D1900088D1900088D1900088D19000888
:1000C0008D1900088D1900088D1900088D19000878
:1000D0008D1900088D1900088D1900088D19000868
:1000E0008D1900088D1900088D1900088D19000858
:1000F0008D1900088D1900088D1900088D19000848
:100100000000000000000000000000008D19000841
:100110008D1900088D1900088D1900088D19000827
:100120008D1900088D1900088D1900088D19000817
:100130008D1900088D190008000000000000000063
:100140008D1900088D1900088D19000800000000A5
:10015000000000000000000000000000000000009F
:1001600000000000000000008D1900088D19000833
:100170008D190008000000000000000000000000D1
:08018000000000008D190008C9
:1001900010B5054C237833B9044B13B10448AFF3C1
:1001A00000800123237010BD5003002000000000D8
:1001B0009CD5000808B5034B1BB103490348AFF3B6
:1001C000008008BD00000000540300209CD50008FA
:1001D000034613F8012B002AFBD1181A0138704787
:1001E00001F0FF01102A2BDB10F0070F08D010F8E8
:1001F000013B013A8B422DD010F0070F42B3F6D1EC
:10020000F0B441EA012141EA014122F007047FF004
:1002100000070023F0E80256083C85EA010586EA5B
:10022000010685FA47F5A3FA87F586FA47F6A5FA97
:1002300087F68EB9EED1F0BC01F0FF0102F00702A3
:1002400032B110F8013B013A83EA010313B1F8D14E
:100250000020704701387047002D06BF354603382F
:10026000073815F0010F07D1013015F4807F02BF68
:10027000013015F4C03F0130F0BC0138704700BFB9
:1002800081F0004102E000BF83F0004330B54FEA47
:1002900041044FEA430594EA050F08BF90EA020FB4
:1002A0001FBF54EA000C55EA020C7FEA645C7FEA47
:1002B000655C00F0E2804FEA5454D4EB5555B8BF6A
:1002C0006D420CDD2C4480EA020281EA030382EADB
:1002D000000083EA010180EA020281EA0303362D6D
:1002E00088BF30BD11F0004F4FEA01314FF4801C40
:1002F0004CEA113102D0404261EB410113F0004F52
:100300004FEA03334CEA133302D0524263EB430308
:1003100094EA050F00F0A780A4F10104D5F1200EA6
:100320000DDB02FA0EFC22FA05F2801841F1000101
:1003300003FA0EF2801843FA05F359410EE0A5F1D5
:1003400020050EF1200E012A03FA0EFC28BF4CF006
:10035000020C43FA05F3C01851EBE37101F00045BC
:1003600007D54FF0000EDCF1000C7EEB00006EEBC9
:100370000101B1F5801F1BD3B1F5001F0CD3490853
:100380005FEA30004FEA3C0C04F101044FEA4452AA
:1003900012F5800F80F09A80BCF1004F08BF5FEA31
:1003A000500C50F1000041EB045141EA050130BD11
:1003B0005FEA4C0C404141EB010111F4801FA4F1B4
:1003C0000104E9D191F0000F04BF01460020B1FA09
:1003D00081F308BF2033A3F10B03B3F120020CDA41
:1003E0000C3208DD02F1140CC2F10C0201FA0CF01F
:1003F00021FA02F10CE002F11402D8BFC2F1200C84
:1004000001FA02F120FA0CFCDCBF41EA0C01904039
:10041000E41AA2BF01EB0451294330BD6FEA040482
:100420001F3C1CDA0C340EDC04F11404C4F120026D
:1004300020FA04F001FA02F340EA030021FA04F37F
:1004400045EA030130BDC4F10C04C4F1200220FAD6
:1004500002F001FA04F340EA0300294630BD21FA14
:1004600004F0294630BD94F0000F83F4801306BFDA
:1004700081F480110134013D4EE77FEA645C18BFCE
:100480007FEA655C29D094EA050F08BF90EA020F65
:1004900005D054EA000C04BF1946104630BD91EA5D
:1004A000030F1EBF0021002030BD5FEA545C05D160
:1004B0004000494128BF41F0004130BD14F580049F
:1004C0003CBF01F5801130BD01F0004545F0FE4113
:1004D00041F470014FF0000030BD7FEA645C1ABF48
:1004E000194610467FEA655C1CBF0B46024650EA7F
:1004F000013406BF52EA033591EA030F41F40021AB
:1005000030BD00BF90F0000F04BF0021704730B530
:100510004FF4806404F132044FF000054FF0000105
:1005200050E700BF90F0000F04BF0021704730B5C6
:100530004FF4806404F1320410F0004548BF40429B
:100540004FF000013EE700BF42004FEAE2014FEAF0
:1005500031014FEA02701FBF12F07F4393F07F4FCB
:1005600081F06051704732F07F4208BF704793F0CE
:100570007F4F04BF41F40021704730B54FF46074E1
:1005800001F0004521F000411CE700BF50EA0102E4
:1005900008BF704730B54FF000050AE050EA01028D
:1005A00008BF704730B511F0004502D5404261EBFD
:1005B00041014FF4806404F132045FEA915C3FF43E
:1005C000D8AE4FF003025FEADC0C18BF03325FEADB
:1005D000DC0C18BF033202EBDC02C2F1200300FA8C
:1005E00003FC20FA02F001FA03FE40EA0E0021FAB1
:1005F00002F11444BDE600BF70B54FF0FF0C4CF49F
:10060000E06C1CEA11541DBF1CEA135594EA0C0F50
:1006100095EA0C0F00F0DEF82C4481EA030621EA8B
:100620004C5123EA4C5350EA013518BF52EA0335C6
:1006300041F4801143F4801338D0A0FB02CE4FF078
:100640000005E1FB02E506F00042E0FB03E54FF0A8
:100650000006E1FB03569CF0000F18BF4EF0010EA0
:10066000A4F1FF04B6F5007F64F5407404D25FEA9C
:100670004E0E6D4146EB060642EAC62141EA55514F
:100680004FEAC52040EA5E504FEACE2EB4F1FD0C91
:1006900088BFBCF5E06F1ED8BEF1004F08BF5FEA0F
:1006A000500E50F1000041EB045170BD06F00046C1
:1006B00046EA010140EA020081EA0301B4EB5C046E
:1006C000C2BFD4EB0C0541EA045170BD41F4801166
:1006D0004FF0000E013C00F3AB8014F1360FDEBF8B
:1006E000002001F0004170BDC4F10004203C35DA67
:1006F0000C341BDC04F11404C4F1200500FA05F3EA
:1007000020FA04F001FA05F240EA020001F000428A
:1007100021F0004110EBD37021FA04F642EB060100
:100720005EEA430E08BF20EAD37070BDC4F10C042A
:10073000C4F1200500FA04F320FA05F001FA04F2EE
:1007400040EA020001F0004110EBD37041F10001DA
:100750005EEA430E08BF20EAD37070BDC4F12005E5
:1007600000FA05F24EEA020E20FA04F301FA05F24D
:1007700043EA020321FA04F001F0004121FA04F2F5
:1007800020EA020000EBD3705EEA430E08BF20EAC5
:10079000D37070BD94F0000F0FD101F000464000FF
:1007A00041EB010111F4801F08BF013CF7D041EA81
:1007B000060195F0000F18BF704703F00046520085
:1007C00043EB030313F4801F08BF013DF7D043EA56
:1007D0000603704794EA0C0F0CEA135518BF95EA0C
:1007E0000C0F0CD050EA410618BF52EA4306D1D193
:1007F00081EA030101F000414FF0000070BD50EAB2
:10080000410606BF1046194652EA430619D094EA3B
:100810000C0F02D150EA013613D195EA0C0F05D125
:1008200052EA03361CBF104619460AD181EA030179
:1008300001F0004141F0FE4141F470014FF0000031
:1008400070BD41F0FE4141F4780170BD70B54FF0CC
:10085000FF0C4CF4E06C1CEA11541DBF1CEA13554C
:1008600094EA0C0F95EA0C0F00F0A7F8A4EB05042E
:1008700081EA030E52EA03354FEA013100F0888025
:100880004FEA03334FF0805545EA131343EA1263EE
:100890004FEA022245EA111545EA10654FEA0026A3
:1008A0000EF000419D4208BF964244F1FD0404F55C
:1008B000407402D25B084FEA3202B61A65EB0305B8
:1008C0005B084FEA32024FF480104FF4002CB6EB75
:1008D000020E75EB030E22BFB61A754640EA0C00F5
:1008E0005B084FEA3202B6EB020E75EB030E22BF35
:1008F000B61A754640EA5C005B084FEA3202B6EB76
:10090000020E75EB030E22BFB61A754640EA9C0034
:100910005B084FEA3202B6EB020E75EB030E22BF04
:10092000B61A754640EADC0055EA060E18D04FEAC2
:10093000051545EA16754FEA06164FEAC30343EA62
:1009400052734FEAC2025FEA1C1CC0D111F4801F2F
:100950000BD141EA00014FF000004FF0004CB6E728
:1009600011F4801F04BF01430020B4F1FD0C88BFC7
:10097000BCF5E06F3FF6AFAEB5EB030C04BFB6EBD2
:10098000020C5FEA500C50F1000041EB045170BDC5
:100990000EF0004E4EEA113114EB5C04C2BFD4EBF2
:1009A0000C0541EA045170BD41F480114FF0000E76
:1009B000013C90E645EA060E8DE60CEA135594EAF2
:1009C0000C0F08BF95EA0C0F3FF43BAF94EA0C0FF5
:1009D0000AD150EA01347FF434AF95EA0C0F7FF46A
:1009E00025AF104619462CE795EA0C0F06D152EABE
:1009F00003353FF4FDAE1046194622E750EA4106A2
:100A000018BF52EA43067FF4C5AE50EA41047FF4B2
:100A10000DAF52EA43057FF4EBAE12E74FF0FF3C17
:100A200006E000BF4FF0010C02E000BF4FF0010CE8
:100A30004DF804CD4FEA410C7FEA6C5C4FEA430C61
:100A400018BF7FEA6C5C1BD001B050EA410C0CBFB0
:100A500052EA430C91EA030F02BF90EA020F002012
:100A6000704710F1000F91EA030F58BF994208BF79
:100A700090422CBFD8176FEAE37040F00100704736
:100A80004FEA410C7FEA6C5C02D150EA013C07D18D
:100A90004FEA430C7FEA6C5CD6D152EA033CD3D0D8
:100AA0005DF8040B704700BF8446104662468C46D2
:100AB0001946634600E000BF01B5FFF7B7FF002805
:100AC00048BF10F1000F01BD4DF808EDFFF7F4FF2E
:100AD0000CBF012000205DF808FB00BF4DF808EDB9
:100AE000FFF7EAFF34BF012000205DF808FB00BFDC
:100AF0004DF808EDFFF7E0FF94BF012000205DF8FE
:100B000008FB00BF4DF808EDFFF7CEFF94BF0120B2
:100B100000205DF808FB00BF4DF808EDFFF7C4FFAB
:100B200034BF012000205DF808FB00BF4FEA410CF4
:100B30007FEA6C5C02D150EA013C0AD14FEA430CD7
:100B40007FEA6C5C02D152EA033C02D14FF0000014
:100B500070474FF0010070474FEA410212F5001252
:100B600015D211D56FF47873B3EB625212D94FEAF4
:100B7000C12343F0004343EA505311F0004F23FADE
:100B800002F018BF404270474FF00000704750EA33
:100B9000013005D111F0004008BF6FF000407047F0
:100BA0004FF00000704700BF80B483B000AF002357
:100BB0007B6000237B6003E000BF7B6801337B60C8
:100BC0007B68B3F5167FF7D300BF0C37BD465DF8E1
:100BD000047B704780B586B002AF0346FB71FB799A
:100BE00063F07F03FB71FB799BB2FB81002208213C
:100BF000154801F0F9F9FFF7D7FF07F10C0207F1EB
:100C00000E01022300930123104804F0FEFBFFF7BE
:100C1000CBFF07F10E01013107F10C020132022373
:100C200000930123094804F0F0FB01220821064843
:100C300001F0DAF9FFF7B8FFBB891B0A9BB2DBB200
:100C400018461037BD4680BD00100048340600200D
:100C500080B584B000AF03460A46FB711346BB71F2
:100C6000FB791AB2BB791B021BB213431BB29BB2B6
:100C7000FB8100220821104801F0B6F9FFF794FF2C
:100C800007F10E01022301220C4804F020F9FFF7BE
:100C90008BFF07F10E01013102230122074804F006
:100CA00016F901220821044801F09EF9FFF77CFFA4
:100CB00000BF1037BD4680BD00100048340600203C
:100CC00080B582B000AF03463960FB711346BB713B
:100CD000FB7963F03F03DBB2FB71002208210F4870
:100CE00001F082F9FFF760FFF91D0A2301220C4889
:100CF00004F0EDF8FFF758FFBB799AB2BB79396879
:100D0000074804F052FA01220821044801F06CF966
:100D1000FFF74AFF00BF0837BD4680BD00100048FE
:100D20003406002080B582B000AF0F20FFF752FFDD
:100D30000346FB71FB79D42B03D0FB79D32B00D076
:100D4000FEE70F212020FFF783FF00BF0837BD46D5
:100D500080BD000000000000F0B5E3B008AF00F077
:100D600017FE00F0E5FA00F011FC00F043FB00F084
:100D700081FB08F02BFE00F0BBFBD14B1B681A680F
:100D8000CF4B1B6842F040021A6001220821CD4877
:100D900001F02AF9CC4804F057FFFFF7C3FF7F2189
:100DA0002020FFF755FF10212320FFF751FF0023DC
:100DB000C7F86431012387F863310023C7F85C3139
:100DC0000023C7F858310023C7F8543107F1C8038E
:100DD00000221A609A8001214FF0904001F0ECF857
:100DE0000346002B19D097F86331002B15D0D7F8A4
:100DF0006431002B07D10123C7F8643100F022FED3
:100E0000C7F8500106E0D7F86431012B02D1022364
:100E1000C7F86431002387F8633101214FF0904017
:100E200001F0CAF80346002BD5D1D7F86431012B65
:100E300040F05E82B7F9C8301846FFF773FB9CA3F9
:100E4000D3E90023FFF7D8FB03460C46C7E9523429
:100E5000B7F9CA301846FFF765FB95A3D3E900231D
:100E6000FFF7CAFB03460C46C7E95034B7F9CC304C
:100E70001846FFF757FB8EA3D3E90023FFF7BCFB0F
:100E800003460C46C7E94E34D7F85C310133C7F846
:100E90005C3107F1C803082219462820FFF710FF2C
:100EA00007F1C8030233082219462A20FFF708FF7A
:100EB00007F1C8030433082219462C20FFF700FF6E
:100EC000B7F9C8301846FFF72DFB79A3D3E9002303
:100ED000FFF792FB03460C46C7E94C34B7F9CA301A
:100EE0001846FFF71FFB72A3D3E90023FFF784FB2B
:100EF00003460C46C7E94A34B7F9CC301846FFF729
:100F000011FB6BA3D3E90023FFF776FB03460C46E6
:100F1000C7E94834D7E94C23D7E95201FFF7B4F9C0
:100F200003460C4644EC173B9FED631BB0EE470AAB
:100F3000F0EE670A0BF080FA56EC105BD7E94A2313
:100F4000D7E95001FFF7A0F903460C4644EC173BE4
:100F50009FED591BB0EE470AF0EE670A0BF06CFAF2
:100F600054EC103B1A46234628463146FFF78EF9CB
:100F700003460C4625461C46D7E94823D7E94E01CF
:100F8000FFF782F902460B4643EC172B9FED4A1BF5
:100F9000B0EE470AF0EE670A0BF04EFA53EC102B56
:100FA00020462946FFF772F903460C4644EC173BEE
:100FB000B0EE470AF0EE670A0BF0AEFB87ED460B8A
:100FC00000F040FDC7F81401D7F81421D7F85031CC
:100FD000D31A952B40F288814FF000023B4BD7E9A2
:100FE0004601FFF77BFD0346002B09D007F1F00314
:100FF000374A07CA03C31A800233120C1A708FE0F3
:101000004FF00002334BD7E94601FFF767FD034677
:10101000002B10D007F1F0032F4A07CA83E807001E
:10102000D7F854310133C7F85431D7F85831013368
:10103000C7F8583174E04FF00002284BD7E9460159
:10104000FFF74CFD0346002B12D007F1F003244AB2
:101050001C4613460FCB07C42380D7F85431023304
:10106000C7F85431D7F858310133C7F8583157E031
:101070004FF000021B4BD7E94601FFF72FFD034657
:10108000002B33D007F1F003174A92E803001860F1
:101090000433198002330A0C1A70D7F85431043320
:1010A000C7F85431D7F858310133C7F8583137E011
:1010B000EC51B81E85EB913F00000000000000409D
:1010C0003406002000100048E8050020000014400D
:1010D000B8D5000800002440C4D500080000344002
:1010E000D0D5000800003E40E0D500084FF00002D7
:1010F000854BD7E94601FFF70FFD0346002B0FD0C4
:1011000007F1F003814A07CA83E80700D7F8543192
:101110000833C7F85431D7F858310133C7F858317C
:10112000384607F1F0030693D7E94834CDE9043493
:10113000D7E94A34CDE90234D7E94C34CDE900345B
:10114000D7F85C21724909F097FD00BF3B4618466D
:10115000FFF73EF803469AB23B461146184608F0A0
:10116000F3FC0346002BF1D1D7F8503103F59C5323
:101170000833D7F814219A42C0F0B68000224FF409
:101180008071644800F030FF00224FF40071614824
:1011900000F02AFF00224FF480615E4800F024FF37
:1011A00000224FF400615B4800F01EFF00224FF464
:1011B0008051584800F018FF00224FF40051554864
:1011C00000F012FF00224FF48041524800F00CFF63
:1011D00000224FF400414F4800F006FF4FF48073A7
:1011E000C7F81031D7F85431092B12D807F1D003C2
:1011F000494A92E80300186004331980454AD7F839
:101200001031DB009361434AD7F81031DB01936161
:1012100043E0D7F85431312B11D807F1D0033F4ABE
:1012200092E803001860043319803A4AD7F8103165
:101230009361384AD7F810311B0193612DE0D7F83C
:101240005431632B12D807F1D003354A92E80300DA
:101250001860043319802F4AD7F810319B0093612E
:101260002C4AD7F810319B01936116E0D7F854311E
:10127000642B12D907F1D0032A4A07CA03C31A8084
:101280000233120C1A70234AD7F810315B009361B5
:10129000204AD7F810315B01936107F1D00307F1C1
:1012A0006400D7F85821204909F0E6FC00BF07F197
:1012B00064031846FEF78CFF03469AB207F16403F5
:1012C0001146184608F040FC0346002BEFD1174B9F
:1012D00000225A620023C7F858310023C7F854315E
:1012E00000F0B0FBC7F85001642000F0B7FB06E047
:1012F000D7F86431022B02D10023C7F864310123EF
:1013000087F8633167E500BF00003E40E8D500087C
:10131000F4D500080010004830D6000838D6000880
:1013200040D6000848D6000854D600080004004003
:1013300080B59EB000AF07F1500328220021184667
:1013400009F036F807F13C0300221A605A609A60EF
:10135000DA601A613B463C220021184609F028F861
:1013600003233B654FF4A0237B650023BB6501236A
:101370003B6610237B660223FB664FF480333B679A
:101380004FF480137B6707F15003184602F056FABA
:101390000346002B01D000F087F90F23FB630223E3
:1013A0003B6400237B644FF48063BB640023FB64D5
:1013B00007F13C030121184603F048F90346002BCE
:1013C00001D000F071F90A4B3B600023FB614FF440
:1013D0008003BB633B46184603F01EFB0346002B0D
:1013E00001D000F061F900BF7837BD4680BD00BF75
:1013F0002000020080B500AF1B4B1C4A1A601A4B3C
:101400001B4A5A60184B00229A60174B0122DA607F
:10141000154B00221A61144B00225A61124B002214
:101420009A61114B0022DA610F4B00221A620E48BA
:1014300000F0F2FD0346002B01D000F035F9002149
:10144000094800F078FE0346002B01D000F02CF98B
:101450000021054800F0BAFE0346002B01D000F041
:1014600023F900BF80BD00BF9C0500200054004050
:101470000E09002080B500AF1B4B1C4A1A601A4BA6
:101480004FF482725A60184B00229A60164B4FF448
:10149000E062DA60144B02221A61134B01225A6196
:1014A000114B4FF400729A610F4B1822DA610E4B08
:1014B00000221A620C4B00225A620B4B00229A62E5
:1014C000094B0722DA62084B00221A63064B0022FE
:1014D0005A63054803F050FC0346002B01D000F08E
:1014E000E3F800BF80BD00BF34060020003001409B
:1014F00080B588B000AF07F1100300221A605A606F
:101500009A60DA603B1D00221A605A609A601D4B97
:101510001D4A1A601B4B2F225A601A4B00229A60F8
:10152000184B40F2E732DA60164B00221A61154B75
:1015300000229A61134804F02FFB0346002B01D0D0
:1015400000F0B2F84FF480533B6107F110031946E5
:101550000C4804F0DBFB0346002B01D000F0A4F89C
:1015600000237B600023FB603B1D1946054804F007
:10157000B1FD0346002B01D000F096F800BF2037E4
:10158000BD4680BDE80500200004004080B58AB05B
:1015900000AF07F1140300221A605A609A60DA6003
:1015A0001A613E4B5B693D4A43F4001353613B4B68
:1015B0005B6903F400133B613B69384B5B69374A55
:1015C00043F400235361354B5B6903F40023FB6054
:1015D000FB68324B5B69314A43F4800353612F4B04
:1015E0005B6903F48003BB60BB682C4B5B692B4ACF
:1015F00043F400335361294B5B6903F400337B6090
:101600007B68264B5B69254A43F480235361234B57
:101610005B6903F480233B603B6800224FF608714E
:101620001F4800F0E1FC37237B611E4BBB610023A8
:10163000FB6107F114031946194800F043FB082326
:101640007B610123BB610023FB6103233B6207F144
:1016500014031946124800F035FB01237B61002377
:10166000BB610023FB6107F1140319464FF0904062
:1016700000F028FB4FF47F437B610123BB61002313
:10168000FB6100233B6207F114031946044800F094
:1016900019FB00BF2837BD4680BD00BF00100240C7
:1016A000001000480000121080B400AF72B6FEE7D0
:1016B00080B582B000AF0F4B9B690E4A43F0010327
:1016C00093610C4B9B6903F001037B607B68094BC2
:1016D000DB69084A43F08053D361064BDB6903F0B2
:1016E00080533B603B68072000F0AAFA00BF083730
:1016F000BD4680BD0010024080B58AB000AF786062
:1017000007F1140300221A605A609A60DA601A61C5
:101710007B681B68174A934227D1174B5B69164AAF
:1017200043F480235361144B5B6903F480233B61D2
:101730003B69C0237B611223BB610123FB6103234F
:101740003B6204237B6207F1140319460B4800F047
:10175000B9FA094BDB69084A43F40013D361064B1D
:10176000DB6903F40013FB60FB6800BF2837BD464C
:1017700080BD00BF0054004000100240000400483B
:1017800080B58AB000AF786007F1140300221A60B8
:101790005A609A60DA601A617B681B68174A934244
:1017A00028D1174B9B69164A43F480539361144B1D
:1017B0009B6903F480533B613B69114B5B69104AA1
:1017C00043F4003353610E4B5B6903F40033FB6059
:1017D000FB68E0237B610223BB610023FB610323E1
:1017E0003B6205237B6207F1140319464FF09040DA
:1017F00000F068FA00BF2837BD4680BD00300140C8
:101800000010024080B485B000AF78607B681B6830
:101810000A4A93420BD10A4BDB69094A43F002039F
:10182000D361074BDB6903F00203FB60FB6800BF79
:101830001437BD465DF8047B704700BF00040040CC
:101840000010024080B400AFFEE780B400AFFEE7B6
:1018500080B400AFFEE780B400AFFEE780B400AF15
:10186000FEE780B400AF00BFBD465DF8047B704763
:1018700080B400AF00BFBD465DF8047B704780B404
:1018800000AF00BFBD465DF8047B704780B500AF78
:1018900000F0C4F800BF80BD80B500AF024800F082
:1018A000E5FD00BF80BD00BF3013002080B586B0CD
:1018B00000AF7860144A154BD31A7B617B693B619A
:1018C000134B1B68002B02D1114B124A1A60104BAC
:1018D0001A687B6813443A699A4207D208F03EFDC1
:1018E00002460C2313604FF0FF3309E0084B1B68DE
:1018F000FB60074B1A687B681344054A1360FB685A
:1019000018461837BD4680BD00A000200004000026
:101910006C0300202016002080B400AF064BD3F8E3
:101920008830054A43F47003C2F8883000BFBD46D2
:101930005DF8047B704700BF00ED00E0DFF834D0B5
:101940000D480E490E4A002302E0D458C450043317
:10195000C4188C42F9D30B4A0B4C002301E01360EE
:101960000432A242FBD3FFF7D7FF08F0FDFCFFF7DC
:10197000F3F9FEE700A00020000000205003002043
:10198000A0D900085003002020160020FEE7000028
:1019900080B500AF084B1B68074A43F01003136083
:1019A000032000F04DF9002000F008F8FFF780FE5A
:1019B0000023184680BD00BF0020024080B582B0E1
:1019C00000AF7860124B1A68124B1B7819464FF41F
:1019D0007A73B3FBF1F3B2FBF3F3184600F065F949
:1019E0000346002B01D001230EE07B680F2B0AD8A1
:1019F000002279684FF0FF3000F02DF9064A7B682D
:101A00001360002300E0012318460837BD4680BD5F
:101A100000000020080000200400002080B400AF77
:101A2000064B1B781A46064B1B681344044A136086
:101A300000BFBD465DF8047B704700BF0800002072
:101A40009806002080B400AF034B1B681846BD46C3
:101A50005DF8047B704700BF9806002080B584B015
:101A600000AF7860FFF7EEFFB8607B68FB60FB6853
:101A7000B3F1FF3F05D0094B1B781A46FB681344AE
:101A8000FB6000BFFFF7DEFF0246BB68D31AFA68AF
:101A90009A42F7D800BF1037BD4680BD080000202D
:101AA00080B485B000AF78607B6803F00703FB600B
:101AB0000C4BDB68BB60BA684FF6FF031340BB609A
:101AC000FB681A02BB68134343F0BF6343F400335F
:101AD000BB60044ABB68D36000BF1437BD465DF8E5
:101AE000047B704700ED00E080B400AF044BDB687E
:101AF0001B0A03F007031846BD465DF8047B7047D8
:101B000000ED00E080B483B000AF0346FB7197F9AD
:101B10000730002B0BDBFB7903F01F02074997F915
:101B200007305B09012000FA02F241F8232000BFD0
:101B30000C37BD465DF8047B704700BF00E100E054
:101B400080B483B000AF03463960FB7197F907306A
:101B5000002B0ADB3B68DAB20C4997F90730120117
:101B6000D2B20B4483F800230AE03B68DAB208499A
:101B7000FB7903F00F03043B1201D2B20B441A7637
:101B800000BF0C37BD465DF8047B704700E100E004
:101B900000ED00E080B489B000AFF860B9607A6011
:101BA000FB6803F00703FB61FB69C3F10703042B28
:101BB00028BF0423BB61FB690433062B02D9FB69F0
:101BC000033B00E000237B614FF0FF32BB6902FA68
:101BD00003F3DA43BB681A407B699A404FF0FF3148
:101BE0007B6901FA03F3D9437B680B401343184622
:101BF0002437BD465DF8047B7047000080B582B095
:101C000000AF78607B68013BB3F1807F01D3012393
:101C10000FE00A4A7B68013B53600F214FF0FF3011
:101C2000FFF78EFF054B00229A60044B07221A60D3
:101C3000002318460837BD4680BD00BF10E000E015
:101C400080B582B000AF78607868FFF729FF00BFE9
:101C50000837BD4680BD80B586B000AF0346B96089
:101C60007A60FB7300237B61FFF73EFF78617A683F
:101C7000B9687869FFF78EFF024697F90F30114671
:101C80001846FFF75DFF00BF1837BD4680BD80B521
:101C900082B000AF0346FB7197F907301846FFF793
:101CA00031FF00BF0837BD4680BD80B582B000AFB0
:101CB00078607868FFF7A2FF034618460837BD46EC
:101CC00080BD000080B487B000AF78603960002329
:101CD0007B6154E13B681A6801217B6901FA03F3D7
:101CE0001340FB60FB68002B00F046813B685B689B
:101CF000012B0BD03B685B68022B07D03B685B680D
:101D0000112B03D03B685B68122B30D17B689B683A
:101D10003B617B695B00032202FA03F3DB433A6910
:101D200013403B613B68DA687B695B0002FA03F3AE
:101D30003A6913433B617B683A699A607B685B68E8
:101D40003B6101227B6902FA03F3DB433A691340EA
:101D50003B613B685B681B0903F001027B6902FA87
:101D600003F33A6913433B617B683A695A607B68C5
:101D7000DB683B617B695B00032202FA03F3DB4310
:101D80003A6913403B613B689A687B695B0002FAE1
:101D900003F33A6913433B617B683A69DA603B6855
:101DA0005B68022B03D03B685B68122B23D17B69F5
:101DB000DA087B68083253F822303B617B6903F014
:101DC00007039B000F2202FA03F3DB433A69134037
:101DD0003B613B681A697B6903F007039B0002FAC9
:101DE00003F33A6913433B617B69DA087B68083285
:101DF000396943F822107B681B683B617B695B0093
:101E0000032202FA03F3DB433A6913403B613B6868
:101E10005B6803F003027B695B0002FA03F33A6933
:101E200013433B617B683A691A603B685B6803F067
:101E30008053002B00F0A080584B9B69574A43F019
:101E400001039361554B9B6903F00103BB60BB68C1
:101E5000534A7B699B08023352F823303B617B690C
:101E600003F003039B000F2202FA03F3DB433A69FA
:101E700013403B617B68B3F1904F19D07B68494AAE
:101E8000934213D07B68484A93420DD07B68474AFF
:101E9000934207D07B68464A934201D1042308E06D
:101EA000052306E0032304E0022302E0012300E00F
:101EB00000237A6902F00302920093403A691343C7
:101EC0003B6137497B699B0802333A6941F823201B
:101ED000384B1B683B61FB68DB433A6913403B614D
:101EE0003B685B6803F48033002B03D03A69FB68DE
:101EF00013433B612F4A3B6913602E4B5B683B6188
:101F0000FB68DB433A6913403B613B685B6803F461
:101F10000033002B03D03A69FB6813433B61254A29
:101F20003B695360234B9B683B61FB68DB433A6929
:101F300013403B613B685B6803F48013002B03D0C4
:101F40003A69FB6813433B611A4A3B699360194B3A
:101F5000DB683B61FB68DB433A6913403B613B68EC
:101F60005B6803F40013002B03D03A69FB6813434A
:101F70003B61104A3B69D3607B6901337B613B68FD
:101F80001A687B6922FA03F3002B7FF4A3AE00BF2B
:101F90001C37BD465DF8047B704700BF001002404F
:101FA000000001400004004800080048000C004800
:101FB000001000480004014080B485B000AF786094
:101FC0000B467B807B681A697B881340002B02D00C
:101FD0000123FB7301E00023FB73FB7B18461437DE
:101FE000BD465DF8047B704780B483B000AF786075
:101FF0000B467B8013467B707B78002B03D07A885E
:102000007B689A6102E07A887B689A6200BF0C372D
:10201000BD465DF8047B704780B582B000AF786044
:102020007B68002B01D1012381E07B6893F841306C
:10203000DBB2002B06D17B68002283F84020786851
:10204000FFF75AFB7B68242283F841207B681B68DA
:102050001A687B681B6822F001021A607B685A6864
:102060007B681B6822F070621A617B681B689A6843
:102070007B681B6822F400429A607B68DB68012B56
:1020800007D17B689A687B681B6842F400429A60BB
:1020900006E07B689A687B681B6842F404429A6099
:1020A0007B68DB68022B04D17B681B684FF40062FD
:1020B0005A607B681B685B687A68126843F000733B
:1020C00043F4004353607B681B68DA687B681B68D5
:1020D00022F40042DA607B681A697B685B6942EA35
:1020E00003017B689B691A027B681B680A43DA60FC
:1020F0007B68D9697B681A6A7B681B680A431A6027
:102100007B681B681A687B681B6842F001021A60D2
:102110007B6800225A647B68202283F841207B6818
:1021200000221A637B68002283F8422000231846AD
:102130000837BD4680BD80B483B000AF7860396099
:102140007B6893F84130DBB2202B38D17B6893F861
:102150004030012B01D1022332E07B68012283F859
:1021600040207B68242283F841207B681B681A6822
:102170007B681B6822F001021A607B681B681A6882
:102180007B681B6822F480521A607B681B681968A0
:102190007B681B683A680A431A607B681B681A6888
:1021A0007B681B6842F001021A607B68202283F87A
:1021B00041207B68002283F84020002300E00223B6
:1021C00018460C37BD465DF8047B704780B485B077
:1021D00000AF786039607B6893F84130DBB2202B28
:1021E00039D17B6893F84030012B01D1022333E0D1
:1021F0007B68012283F840207B68242283F84120F9
:102200007B681B681A687B681B6822F001021A60F1
:102210007B681B681B68FB60FB6823F47063FB60D2
:102220003B681B02FA681343FB607B681B68FA6813
:102230001A607B681B681A687B681B6842F00102A1
:102240001A607B68202283F841207B68002283F893
:102250004020002300E0022318461437BD465DF8F5
:10226000047B7047F0B58BB006AF78607B68002BBD
:1022700001D10123D0E07B6893F8A932DBB2002BB7
:1022800006D17B68002283F8A822786807F090FDC9
:102290007B68032283F8A9227B681B68184603F039
:1022A000B0FF0023FB734CE0FB7B79685A1C13469C
:1022B0009B001344DB000B44013301221A70FB7BAB
:1022C00079685A1C13469B001344DB000B44FA7BCD
:1022D0001A70FA7BFB7B98B2796813469B00134413
:1022E000DB000B44363302461A80FB7B79685A1CAC
:1022F00013469B001344DB000B44033300221A7087
:10230000FA7B796813469B001344DB000B44383397
:1023100000221A60FA7B796813469B001344DB00A5
:102320000B443C3300221A60FA7B796813469B0009
:102330001344DB000B44403300221A60FB7B013363
:10234000FB73FA7B7B685B689A42ADD30023FB7317
:1023500044E0FA7B796813469B001344DB000B448E
:1023600003F2691300221A70FA7B796813469B0006
:102370001344DB000B4403F5B473FA7B1A70FA7B49
:10238000796813469B001344DB000B4403F26B1384
:1023900000221A70FA7B796813469B001344DB0015
:1023A0000B4403F5BC7300221A60FA7B796813466C
:1023B0009B001344DB000B4403F5BE7300221A603C
:1023C000FA7B796813469B001344DB000B4403F54A
:1023D000C07300221A60FB7B0133FB73FA7B7B68BE
:1023E0005B689A42B5D37B681B683B607E686D462C
:1023F00006F110040FCC0FC523682B60331D0ECBE4
:10240000386803F019FF7B68002283F824207B687A
:10241000012283F8A922002318461437BD46F0BDD7
:1024200080B582B000AF78607B6893F8A832012B4A
:1024300001D1022316E07B68012283F8A8227B6881
:102440001B68184603F0C6FE0121786807F04EFFAE
:102450007B681B68184605F09FFE7B68002283F8A6
:10246000A822002318460837BD4680BD80B582B03B
:1024700000AF78607B681B68184605F098FE03463D
:1024800003F40043B3F5004F02D1786800F0F6FA88
:102490007B681B68184605F08AFE034603F48063D8
:1024A000B3F5806F12D17B681B68B3F844309AB2E1
:1024B0007B681B6822F4806292B2A3F8442078689B
:1024C00007F017FD0021786800F0C7F87B681B68EB
:1024D000184605F06CFE034603F48043B3F5804FC5
:1024E0000BD17B681B68B3F844309AB27B681B68D9
:1024F00022F4804292B2A3F844207B681B681846FD
:1025000005F055FE034603F40053B3F5005F0BD10D
:102510007B681B68B3F844309AB27B681B6822F46E
:10252000005292B2A3F844207B681B68184605F05D
:102530003EFE034603F48053B3F5805F26D17B68EB
:102540001B68B3F840309AB27B681B6822F0040223
:1025500092B2A3F840207B681B68B3F840309AB26F
:102560007B681B6822F0080292B2A3F840207868CA
:1025700007F0F8FC7B681B68B3F844309AB27B68BC
:102580001B6822F4805292B2A3F844207B681B6837
:10259000184605F00CFE034603F40063B3F5006F24
:1025A00026D17B681B68B3F840309AB27B681B6801
:1025B00042F0080292B2A3F840207B681B68B3F88F
:1025C00044309AB27B681B6822F4006292B2A3F88E
:1025D00044207B681B68B3F840309AB27B681B6864
:1025E00042F0040292B2A3F84020786807F0A0FC01
:1025F0007B681B68184605F0DAFD034603F4007398
:10260000B3F5007F0ED17B681B68B3F844309AB2F3
:102610007B681B6822F4007292B2A3F844207868A9
:1026200007F059FC7B681B68184605F0C0FD03469F
:1026300003F48073B3F5807F0BD17B681B68B3F81C
:1026400044309AB27B681B6822F4807292B2A3F87D
:10265000442000BF0837BD4680BD80B582B000AFC2
:1026600078600B46FB707B6893F8A832012B01D190
:10267000022313E07B68012283F8A8227B68FA78A2
:1026800083F824207B681B68FA781146184605F009
:102690006FFD7B68002283F8A822002318460837C4
:1026A000BD4680BD80B584B000AF78600846114655
:1026B0001A460346FB700B463B801346BB70002353
:1026C000FB7297F90330002B0EDAFB7803F0070357
:1026D0005A1C13469B001344DB007A681344FB60CA
:1026E000FB6801225A700EE0FB7803F007021346E4
:1026F0009B001344DB0003F5B4737A681344FB605A
:10270000FB6800225A70FB7803F00703DAB2FB681B
:102710001A703A88FB681A61FB68BA78DA70FB684D
:102720005B78002B04D0FB681B789AB2FB68DA81D7
:10273000BB78022B02D1FB6800221A717B6893F8E8
:10274000A832012B01D102230EE07B68012283F81D
:10275000A8227B681B68F968184603F08FFD7B6828
:10276000002283F8A822FB7A18461037BD4680BDA8
:1027700080B584B000AF78600B46FB7097F90330EA
:10278000002B0EDAFB7803F007035A1C13469B005C
:102790001344DB007A681344FB60FB6801225A7023
:1027A0000EE0FB7803F0070213469B001344DB00A6
:1027B00003F5B4737A681344FB60FB6800225A7017
:1027C000FB7803F00703DAB2FB681A707B6893F8B2
:1027D000A832012B01D102230EE07B68012283F88D
:1027E000A8227B681B68F968184604F0B5F87B6876
:1027F000002283F8A822002318461037BD4680BD6A
:1028000080B586B000AFF8607A603B600B46FB7223
:10281000FB7A03F0070213469B001344DB0003F529
:10282000B473FA6813447B617B697A685A617B6987
:102830003A689A617B690022DA617B6900225A70EA
:10284000FB7A03F00703DAB27B691A70FB7A03F0B4
:102850000703002B06D1FB681B687969184604F052
:1028600068FA05E0FB681B687969184604F061FAAC
:10287000002318461837BD4680BD80B483B000AF32
:1028800078600B46FB70FB7803F00702796813460B
:102890009B001344DB000B4403F5C2731B6818460E
:1028A0000C37BD465DF8047B704780B586B000AF3D
:1028B000F8607A603B600B46FB72FB7A03F007031B
:1028C0005A1C13469B001344DB00FA6813447B61D7
:1028D0007B697A685A617B693A689A617B690122EF
:1028E00083F824207B693A681A627B690022DA61E6
:1028F0007B6901225A70FB7A03F00703DAB27B6925
:102900001A70FB7A03F00703002B06D1FB681B68E3
:102910007969184604F00DFA05E0FB681B687969CF
:10292000184604F006FA002318461837BD4680BD45
:1029300080B584B000AF78600B46FB70FB7803F085
:1029400007027B685B689A4201D901233EE097F950
:102950000330002B0EDAFB7803F007035A1C1346F2
:102960009B001344DB007A681344FB60FB68012280
:102970005A700CE0FA7813469B001344DB0003F511
:10298000B4737A681344FB60FB6800225A70FB68DA
:1029900001229A70FB7803F00703DAB2FB681A7021
:1029A0007B6893F8A832012B01D102230EE07B68EB
:1029B000012283F8A8227B681B68F968184605F095
:1029C000D8FA7B68002283F8A82200231846103723
:1029D000BD4680BD80B584B000AF78600B46FB700B
:1029E000FB7803F00F027B685B689A4201D90123F0
:1029F00040E097F90330002B0EDAFB7803F0070371
:102A00005A1C13469B001344DB007A681344FB6096
:102A1000FB6801225A700EE0FB7803F007021346B0
:102A20009B001344DB0003F5B4737A681344FB6026
:102A3000FB6800225A70FB6800229A70FB7803F052
:102A40000703DAB2FB681A707B6893F8A832012B8F
:102A500001D102230EE07B68012283F8A8227B6863
:102A60001B68F968184605F0D5FA7B68002283F8E0
:102A7000A822002318461037BD4680BD80B58EB011
:102A800000AF7860DFE27B681B68B3F84430FB85F9
:102A9000FB8DDBB203F00F0387F82D3097F82D3054
:102AA000002B40F05881FB8D03F01003002B52D116
:102AB0007B681B681B889BB223F4E14323F07003FF
:102AC000FB817B681A68FB896FEA43436FEA5343D3
:102AD0009BB213807B6828337B627B681B68B3F8EA
:102AE00050309BB21A467B6A1B78DB0013440233DA
:102AF0005B007A681268134403F580631B88C3F394
:102B000009027B6ADA617B6A5A697B6ADB691A446B
:102B10007B6A5A610021786807F0C3F97B6893F8F3
:102B20002430DBB2002B00F08E827B6A9B69002B85
:102B300040F089827B6893F82430DBB263F07F0336
:102B4000DAB27B681B6892B2A3F84C207B68002243
:102B500083F8242077E27B6803F5B4737B627B689B
:102B60001B681B887B857B8D03F40063002B34D0AE
:102B70007B681B68B3F850309BB21A467B6A1B789F
:102B8000DB00134406335B007A681268134403F5D4
:102B900080631B88C3F309027B6ADA617B6818686B
:102BA0007B6803F52C717B6ADA887B6ADB699BB2F0
:102BB00005F052FB7B681B681B889AB240F68F7346
:102BC00013403B827B681B683A8A42F0800292B2D3
:102BD0001A80786807F038F935E2B7F92A30002B07
:102BE00080F231827B681B681B889AB240F68F7333
:102BF0001340BB837B681B68BA8B42F0800292B2A1
:102C00001A807B681B68B3F850309BB21A467B6A07
:102C10001B78DB00134406335B007A6812681344A8
:102C200003F580631B88C3F309027B6ADA617B6A60
:102C3000DB69002B19D07B6A5B69002B15D07B68A0
:102C400018687B6A59697B6ADA887B6ADB699BB2A0
:102C500005F002FB7B6A5A697B6ADB691A447B6A6E
:102C60005A610021786807F001F97B681B68BB6135
:102C70007B681B68B3F850309BB21A46BB6913449B
:102C8000BB61BB6903F20C437B617B6A1B69002B50
:102C900012D17B691B889BB223F4F8439AB27B69FB
:102CA0001A807B691B889BB26FEA43436FEA5343E8
:102CB0009AB27B691A802FE07B6A1B693E2B13D87E
:102CC0007B6A1B695B083B637B6A1B6903F001033A
:102CD000002B02D03B6B01333B633B6B9BB29B02EF
:102CE0009AB27B691A8017E07B6A1B695B093B63B8
:102CF0007B6A1B6903F01F03002B02D13B6B013B76
:102D00003B633B6B9BB29B029BB26FEA43436FEA10
:102D100053439AB27B691A807B681B681B889BB2FD
:102D200023F4804323F070037B827B8A83F48053F7
:102D30007B827B8A83F400537B827B681A687B8A60
:102D400043F07F4343F47F0343F4004343F08003A5
:102D50009BB2138077E17B681B681A4697F82D3089
:102D60009B0013441B887B85B7F92A30002B80F227
:102D7000EA807B681B681A4697F82D309B00134445
:102D80001B889AB240F68F7313403B857B681B68A3
:102D90001A4697F82D309B0013443A8D42F080027A
:102DA00092B21A8097F82D2013469B001344DB0043
:102DB00003F5B4737A6813447B627B6A1B7B002B38
:102DC00022D17B681B68B3F850309BB21A467B6AED
:102DD0001B78DB00134406335B007A6812681344E7
:102DE00003F580631B88C3F30903FB86FB8E002B6E
:102DF00000F087807B6818687B6A59697B6ADA888B
:102E0000FB8E05F029FA7CE07B6ADB78022B08D187
:102E10007B8D1A46796A786800F023F90346FB86B1
:102E20006FE07B681B681A467B6A1B789B00134423
:102E30001B889BB223F4E04323F070037B847B6800
:102E40001B681A467B6A1B789B001A447B8C43F0F4
:102E50007F4343F47F0343F4004343F0C0039BB23A
:102E600013807B681B681A467B6A1B789B0013449F
:102E70001B889BB203F48043002B21D07B681B6826
:102E8000B3F850309BB21A467B6A1B78DB001344C0
:102E900002335B007A681268134403F580631B8871
:102EA000C3F30903FB86FB8E002B2AD07B681868CE
:102EB0007B6A59697B6A1A89FB8E05F0CDF920E09F
:102EC0007B681B68B3F850309BB21A467B6A1B784C
:102ED000DB00134406335B007A681268134403F581
:102EE00080631B88C3F30903FB86FB8E002B08D08D
:102EF0007B6818687B6A59697B6A5A89FB8E05F082
:102F0000ABF97B6ADA69FB8E1A447B6ADA617B6A09
:102F10005A69FB8E1A447B6A5A617B6A9B69002B53
:102F200004D0FA8E7B6A1B699A4206D27B6A1B78B0
:102F30001946786806F09AFF05E07B681B68796A95
:102F4000184603F0F6FE7B8D03F08003002B7AD049
:102F500097F82D305A1C13469B001344DB007A6807
:102F600013447B627B681B681A4697F82D309B00E0
:102F700013441B889BB223F4E14323F070033B848A
:102F80007B681B681A4697F82D309B001A443B8CCF
:102F90006FEA43436FEA53439BB213807B6ADB784B
:102FA000022B08D17B6ADB78022B46D17B8D03F4A0
:102FB0008073002B41D17B681B68B3F850309BB203
:102FC0001A467B6A1B78DB00134402335B007A6885
:102FD0001268134403F580631B88C3F30903FB8362
:102FE0007B6A9A69FB8B9A4206D97B6A9A69FB8B4A
:102FF000D21A7B6A9A6102E07B6A00229A617B6A3C
:103000009B69002B06D17B6A1B781946786806F00D
:1030100048FF18E07B6A5A69FB8B1A447B6A5A6145
:103020007B6ADA69FB8B1A447B6ADA617B681B680E
:10303000796A184603F07DFE05E07B8D1A46796AB1
:10304000786800F01BF97B681B68B3F844309BB2CA
:103050001BB2002BFFF617AD002318463837BD46CC
:1030600080BD80B588B000AFF860B9601346FB80C2
:10307000FB8803F48043002B7ED0FB681B68B3F809
:1030800050309BB21A46BB681B78DB0013440233F6
:103090005B00FA681268134403F580631B88C3F36E
:1030A00009037B83BB689A697B8B9A4206D3BB6812
:1030B0009A697B8BD21ABB689A6102E0BB680022D6
:1030C0009A61BB689B69002B23D1FB681B681A4679
:1030D000BB681B789B0013441B889BB223F480437E
:1030E00023F070033B833B8B83F400533B83FB68EB
:1030F0001B681A46BB681B789B001A443B8B43F045
:103100007F4343F47F0343F4004343F080039BB2C7
:103110001380FB8803F04003002B1FD0FB681B6863
:103120001A46BB681B789B0013441B889BB223F490
:10313000E04323F07003FB82FB681B681A46BB6800
:103140001B789B001A44FB8A43F07F4343F47F03C0
:1031500043F4004343F0C0039BB213807B8B002BEE
:1031600000F08780FB681868BB685969BB681A89DA
:103170007B8B05F071F87CE0FB681B68B3F850307E
:103180009BB21A46BB681B78DB00134406335B0016
:10319000FA681268134403F580631B88C3F30903BC
:1031A0007B83BB689A697B8B9A4206D3BB689A691A
:1031B0007B8BD21ABB689A6102E0BB6800229A61DD
:1031C000BB689B69002B23D1FB681B681A46BB6850
:1031D0001B789B0013441B889BB223F4804323F08D
:1031E0007003FB83FB8B83F40053FB83FB681B683A
:1031F0001A46BB681B789B001A44FB8B43F07F4345
:1032000043F47F0343F4004343F080039BB21380F5
:10321000FB8803F04003002B1FD1FB681B681A4694
:10322000BB681B789B0013441B889BB223F4E043CC
:1032300023F07003BB83FB681B681A46BB681B78CE
:103240009B001A44BB8B43F07F4343F47F0343F45A
:10325000004343F0C0039BB213807B8B002B08D04C
:10326000FB681868BB685969BB685A897B8B04F096
:10327000F3FF7B8B18462037BD4680BD80B592B0EA
:1032800000AFF860B9601346FB80FB8803F0400391
:10329000002B00F03281FB681B68B3F850309BB202
:1032A0001A46BB681B78DB00134402335B00FA68E4
:1032B0001268134403F580631B88C3F30903FB857D
:1032C000BB689A69FB8D9A4206D9BB689A69FB8DE7
:1032D000D21ABB689A6102E0BB6800229A61BB689F
:1032E0009B69002B2CD1BB681B781946F86806F047
:1032F000D8FDFB8803F48043002B00F02F82FB688D
:103300001B681A46BB681B789B0013441B889BB242
:1033100023F4E04323F070037B82FB681B681A46AA
:10332000BB681B789B001A447B8A43F07F4343F4BD
:103330007F0343F4404343F080039BB213800DE2CC
:10334000FB8803F48043002B1FD0FB681B681A46E0
:10335000BB681B789B0013441B889BB223F4E0439B
:1033600023F07003BB84FB681B681A46BB681B789C
:103370009B001A44BB8C43F07F4343F47F0343F428
:10338000404343F080039BB21380BB6893F8243022
:10339000012B40F0E381BB685A69FB8D1A44BB687E
:1033A0005A61BB68DA69FB8D1A44BB68DA61BB6895
:1033B0001A6ABB681B699A4209D3BB681B69BB6365
:1033C000BB681A6ABB6BD21ABB681A6214E0BB688E
:1033D0001B6A002B06D1FB8DBB63BB68002283F800
:1033E000242009E0BB68002283F82420BB681B6A04
:1033F000BB63BB6800221A62BB685B78002B55D1A7
:10340000FB681B68BB61FB681B68B3F850309BB25C
:103410001A46BB691344BB61BB681B781A01BB69C0
:10342000134403F204437B61BB6B002B12D17B6915
:103430001B889BB223F4F8439AB27B691A807B699C
:103440001B889BB26FEA43436FEA53439AB27B698E
:103450001A8047E0BB6B3E2B11D8BB6B5B08BB628D
:10346000BB6B03F00103002B02D0BB6A0133BB62CC
:10347000BB6A9BB29B029AB27B691A8032E0BB6B3B
:103480005B09BB62BB6B03F01F03002B02D1BB6A5D
:10349000013BBB62BB6A9BB29B029BB26FEA434398
:1034A0006FEA53439AB27B691A801BE0BB685B7872
:1034B000012B17D1FB681B683B62FB681B68B3F8E4
:1034C00050309BB21A463B6A13443B62BB681B7880
:1034D0001A013B6A134403F20443FB61BB6B9AB2CB
:1034E000FB691A80FB681868BB685969BB681A8950
:1034F000BB6B9BB204F06BFE30E1FB681B68B3F85A
:1035000050309BB21A46BB681B78DB00134406336D
:103510005B00FA681268134403F580631B88C3F3E9
:103520000903FB85BB689A69FB8D9A4206D3BB6889
:103530009A69FB8DD21ABB689A6102E0BB680022CF
:103540009A61BB689B69002B2CD1BB681B7819461C
:10355000F86806F0A6FCFB8803F48043002B40F0DB
:10356000FD80FB681B681A46BB681B789B001344F0
:103570001B889BB223F4E04323F07003FB84FB68B9
:103580001B681A46BB681B789B001A44FB8C43F0EF
:103590007F4343F47F0343F4404343F080039BB2F3
:1035A0001380DBE0FB8803F48043002B1FD1FB6812
:1035B0001B681A46BB681B789B0013441B889BB290
:1035C00023F4E04323F07003BB85FB681B681A46B5
:1035D000BB681B789B001A44BB8D43F07F4343F4C8
:1035E0007F0343F4404343F080039BB21380BB68E6
:1035F00093F82430012B40F0B180BB685A69FB8DF1
:103600001A44BB685A61BB68DA69FB8D1A44BB680F
:10361000DA61BB681A6ABB681B699A4209D3BB6846
:103620001B69BB63BB681A6ABB6BD21ABB681A62A0
:1036300014E0BB681B6A002B06D1FB8DBB63BB6823
:10364000002283F8242009E0BB681B6ABB63BB68C7
:1036500000221A62BB68002283F82420FB681B68E2
:103660007B63BB685B78002B55D1FB681B687B6470
:10367000FB681B68B3F850309BB21A467B6C13444E
:103680007B64BB681B781A017B6C134403F20C4308
:103690003B64BB6B002B12D13B6C1B889BB223F4A9
:1036A000F8439AB23B6C1A803B6C1B889BB26FEA62
:1036B00043436FEA53439AB23B6C1A8044E0BB6BBE
:1036C0003E2B11D8BB6B5B08FB63BB6B03F00103A4
:1036D000002B02D0FB6B0133FB63FB6B9BB29B02A5
:1036E0009AB23B6C1A802FE0BB6B5B09FB63BB6B30
:1036F00003F01F03002B02D1FB6B013BFB63FB6B51
:103700009BB29B029BB26FEA43436FEA53439AB268
:103710003B6C1A8018E0BB685B78012B14D1FB6806
:103720001B68B3F850309BB21A467B6B13447B6323
:10373000BB681B781A017B6B134403F20C433B6399
:10374000BB6B9AB23B6B1A80FB681868BB685969FF
:10375000BB685A89BB6B9BB204F039FDFB681B68E0
:103760001A46BB681B789B0013441B889BB223F44A
:10377000E04323F040033B823B8A83F010033B820B
:103780003B8A83F020033B82FB681B681A46BB68B8
:103790001B789B001A443B8A43F07F4343F47F032A
:1037A00043F4004343F080039BB213800023184688
:1037B0004837BD4680BD80B487B000AFF8607B60FD
:1037C0000B467B8113463B817B8903F080039BB2D0
:1037D000002B0BD07B8903F007035A1C13469B0078
:1037E0001344DB00FA6813447B6109E07A891346CD
:1037F0009B001344DB0003F5B473FA6813447B6148
:103800003B89002B07D17B6900221A737B689AB22F
:103810007B69DA800BE07B6901221A737B689AB2BC
:103820007B691A817B681B0C9AB27B695A810023E1
:1038300018461C37BD465DF8047B704780B5ADF572
:10384000007D00AF3B1D18603B1D1B68002B02D1A3
:10385000012300F0F4BE3B1D1B681B6803F001034D
:10386000002B00F06A81B34B5B6803F00C03042B60
:103870000CD0B04B5B6803F00C03082B59D1AD4B57
:103880005B6803F48033B3F5803F52D14FF40033CB
:10389000C7F8F031D7F8F03193FAA3F3C7F8EC3159
:1038A000D7F8EC31B3FA83F3DBB25B09DBB243F058
:1038B0000103DBB2012B02D19E4B1B6815E04FF4D4
:1038C0000033C7F8E831D7F8E83193FAA3F3C7F823
:1038D000E4314FF40033C7F8E031D7F8E03193FA20
:1038E000A3F3C7F8DC31934B5B6A4FF40032C7F89F
:1038F000D821D7F8D82192FAA2F2C7F8D421D7F864
:10390000D421B2FA82F2D2B242F02002D2B202F054
:103910001F02012101FA02F21340002B00F00C817A
:103920003B1D1B685B68002B40F00681012300F003
:1039300086BE3B1D1B685B68B3F5803F06D17D4B9F
:103940001B687C4A43F48033136030E03B1D1B68E6
:103950005B68002B0CD1774B1B68764A23F48033CD
:103960001360744B1B68734A23F4802313601EE0BA
:103970003B1D1B685B68B3F5A02F0CD16D4B1B681A
:103980006C4A43F4802313606A4B1B68694A43F412
:10399000803313600BE0674B1B68664A23F4803367
:1039A0001360644B1B68634A23F480231360614BEC
:1039B000DB6A23F00F023B1D1B689B685D491343C4
:1039C000CB623B1D1B685B68002B59D0FEF73AF8B1
:1039D000C7F8F8010AE0FEF735F80246D7F8F831E3
:1039E000D31A642B02D9032300F029BE4FF400330D
:1039F000C7F8D031D7F8D03193FAA3F3C7F8CC3158
:103A0000D7F8CC31B3FA83F3DBB25B09DBB243F016
:103A10000103DBB2012B02D1464B1B6815E04FF4CA
:103A20000033C7F8C831D7F8C83193FAA3F3C7F801
:103A3000C4314FF40033C7F8C031D7F8C03193FA1E
:103A4000A3F3C7F8BC313B4B5B6A4FF40032C7F8B5
:103A5000B821D7F8B82192FAA2F2C7F8B421D7F862
:103A6000B421B2FA82F2D2B242F02002D2B202F013
:103A70001F02012101FA02F21340002BABD05CE0DF
:103A8000FDF7E0FFC7F8F8010AE0FDF7DBFF0246AB
:103A9000D7F8F831D31A642B02D9032300F0CFBD35
:103AA0004FF40033C7F8B031D7F8B03193FAA3F32D
:103AB000C7F8AC31D7F8AC31B3FA83F3DBB25B09AA
:103AC000DBB243F00103DBB2012B02D1194B1B68BF
:103AD00015E04FF40033C7F8A831D7F8A83193FAAE
:103AE000A3F3C7F8A4314FF40033C7F8A031D7F8D7
:103AF000A03193FAA3F3C7F89C310E4B5B6A4FF4E5
:103B00000032C7F89821D7F8982192FAA2F2C7F8A4
:103B10009421D7F89421B2FA82F2D2B242F0200274
:103B2000D2B202F01F02012101FA02F21340002B6F
:103B3000ABD102E00010024000BF3B1D1B681B68B8
:103B400003F00203002B00F06F81D04B5B6803F0A1
:103B50000C03002B0BD0CD4B5B6803F00C03082B40
:103B60006CD1CA4B5B6803F48033002B66D102230F
:103B7000C7F89031D7F8903193FAA3F3C7F88C3196
:103B8000D7F88C31B3FA83F3DBB25B09DBB243F0D5
:103B90000103DBB2012B02D1BC4B1B6813E00223F3
:103BA000C7F88831D7F8883193FAA3F3C7F884317E
:103BB0000223C7F88031D7F8803193FAA3F3C7F80E
:103BC0007C31B24B5B6A0222C7F87821D7F87821A2
:103BD00092FAA2F2C7F87421D7F87421B2FA82F2ED
:103BE000D2B242F02002D2B202F01F02012101FA49
:103BF00002F21340002B07D03B1D1B681B69012BF1
:103C000002D0012300F01BBDA04B1B6823F0F8027B
:103C10003B1D1B685B69F821C7F87011D7F870115C
:103C200091FAA1F1C7F86C11D7F86C11B1FA81F1D2
:103C3000C9B28B40954913430B60F5E03B1D1B68EF
:103C40001B69002B00F085800123C7F86831D7F885
:103C5000683193FAA3F3C7F86431D7F86431B3FA43
:103C600083F3DBB203F1845303F584139B001A46FC
:103C700001231360FDF7E6FEC7F8F8010AE0FDF73F
:103C8000E1FE0246D7F8F831D31A022B02D90323FA
:103C900000F0D5BC0223C7F86031D7F8603193FA41
:103CA000A3F3C7F85C31D7F85C31B3FA83F3DBB226
:103CB0005B09DBB243F00103DBB2012B02D1734B92
:103CC0001B6813E00223C7F85831D7F8583193FA2C
:103CD000A3F3C7F854310223C7F85031D7F8503155
:103CE00093FAA3F3C7F84C31684B5B6A0222C7F81A
:103CF0004821D7F8482192FAA2F2C7F84421D7F810
:103D00004421B2FA82F2D2B242F02002D2B202F0E0
:103D10001F02012101FA02F21340002BAFD05B4BCE
:103D20001B6823F0F8023B1D1B685B69F821C7F88C
:103D30004011D7F8401191FAA1F1C7F83C11D7F81A
:103D40003C11B1FA81F1C9B28B40504913430B6069
:103D50006AE00123C7F83831D7F8383193FAA3F372
:103D6000C7F83431D7F83431B3FA83F3DBB203F157
:103D7000845303F584139B001A4600231360FDF758
:103D800061FEC7F8F8010AE0FDF75CFE0246D7F8CD
:103D9000F831D31A022B02D9032300F050BC0223BE
:103DA000C7F83031D7F8303193FAA3F3C7F82C3184
:103DB000D7F82C31B3FA83F3DBB25B09DBB243F003
:103DC0000103DBB2012B02D1304B1B6813E002234D
:103DD000C7F82831D7F8283193FAA3F3C7F824316C
:103DE0000223C7F82031D7F8203193FAA3F3C7F89C
:103DF0001C31264B5B6A0222C7F81821D7F818211C
:103E000092FAA2F2C7F81421D7F81421B2FA82F27A
:103E1000D2B242F02002D2B202F01F02012101FA16
:103E200002F21340002BAFD13B1D1B681B6803F04F
:103E30000803002B00F0DA803B1D1B689B69002BF8
:103E400069D00123C7F81031D7F8103193FAA3F3E2
:103E5000C7F80C31D7F80C31B3FA83F3DBB21A464A
:103E60000B4B13449B001A4601231360FDF7EAFD38
:103E7000C7F8F8010EE0FDF7E5FD0246D7F8F83186
:103E8000D31A022B06D90323D9E300BF0010024046
:103E9000208190100223C7F80831D7F8083193FA2F
:103EA000A3F3C7F8043107F5807302221A6007F5FF
:103EB00080731B6893FAA3F207F1FC031A6007F101
:103EC000F80302221A6007F1F8031B6893FAA3F2C1
:103ED00007F1F4031A60A54B5A6A07F1F0030221B7
:103EE000196007F1F0031B6893FAA3F107F1EC03E3
:103EF000196007F1EC031B68B3FA83F3DBB243F0FC
:103F00006003DBB203F01F03012101FA03F3134046
:103F1000002BB0D06AE007F1E80301221A6007F134
:103F2000E8031B6893FAA3F207F1E4031A6007F1B0
:103F3000E4031B68B3FA83F3DBB21A468C4B1344D9
:103F40009B001A4600231360FDF77CFDC7F8F801BB
:103F500009E0FDF777FD0246D7F8F831D31A022BB6
:103F600001D903236BE307F1E00302221A6007F192
:103F7000E0031B6893FAA3F207F1DC031A6007F170
:103F8000D80302221A6007F1D8031B6893FAA3F240
:103F900007F1D4031A6007F1D00302221A6007F177
:103FA000D0031B6893FAA3F207F1CC031A606F4B9E
:103FB0005A6A07F1C8030221196007F1C8031B6898
:103FC00093FAA3F107F1C403196007F1C4031B6856
:103FD000B3FA83F3DBB243F06003DBB203F01F03F9
:103FE000012101FA03F31340002BB2D13B1D1B68E2
:103FF0001B6803F00403002B00F05881002387F8AE
:10400000FF315A4BDB6903F08053002B12D1574B21
:10401000DB69564A43F08053D361544BDB6903F0AC
:10402000805207F108031A6007F108031B68012397
:1040300087F8FF314F4B1B6803F48073002B1AD1B4
:104040004C4B1B684B4A43F480731360FDF7FAFC3A
:10405000C7F8F80109E0FDF7F5FC0246D7F8F8319A
:10406000D31A642B01D90323E9E2424B1B6803F402
:104070008073002BEFD03B1D1B68DB68012B06D142
:104080003A4B1B6A394A43F0010313622FE03B1D90
:104090001B68DB68002B0CD1344B1B6A334A23F0BE
:1040A00001031362314B1B6A304A23F0040313628D
:1040B0001DE03B1D1B68DB68052B0CD12B4B1B6ADD
:1040C0002A4A43F004031362284B1B6A274A43F031
:1040D000010313620BE0254B1B6A244A23F0010302
:1040E0001362224B1B6A214A23F0040313623B1D17
:1040F0001B68DB68002B6BD0FDF7A4FCC7F8F80148
:104100000BE0FDF79FFC0246D7F8F831D31A41F2D5
:104110008832934201D9032391E207F1C0030222BE
:104120001A6007F1C0031B6893FAA3F207F1BC03FE
:104130001A6007F1B80302221A6007F1B8031B687E
:1041400093FAA3F207F1B4031A6007F1B4031B68F2
:10415000B3FA83F3DBB25B09DBB243F00203DBB2F9
:10416000022B09D1014B1B6A14E000BF0010024072
:10417000208190100070004007F1B00302221A6005
:1041800007F1B0031B6893FAA3F207F1AC031A60BE
:10419000BB4B5B6A07F1A8020221116007F1A8027C
:1041A000126892FAA2F107F1A402116007F1A402C9
:1041B0001268B2FA82F2D2B242F04002D2B202F0F7
:1041C0001F02012101FA02F21340002B99D063E093
:1041D000FDF738FCC7F8F8010BE0FDF733FC0246A9
:1041E000D7F8F831D31A41F28832934201D9032328
:1041F00025E207F1A00302221A6007F1A0031B6861
:1042000093FAA3F207F19C031A6007F198030222C4
:104210001A6007F198031B6893FAA3F207F194035D
:104220001A6007F194031B68B3FA83F3DBB25B09EE
:10423000DBB243F00203DBB2022B02D1904B1B6ACC
:104240000DE007F1900302221A6007F190031B684A
:1042500093FAA3F207F18C031A60894B5B6A07F1AA
:1042600088020221116007F18802126892FAA2F115
:1042700007F18402116007F184021268B2FA82F237
:10428000D2B242F04002D2B202F01F02012101FA82
:1042900002F21340002BA0D197F8FF31012B05D17A
:1042A000774BDB69764A23F08053D3613B1D1B6853
:1042B000DB69002B00F0C281714B5B6803F00C03DB
:1042C000082B00F09C813B1D1B68DB69022B40F032
:1042D000148107F180034FF080721A6007F18003A8
:1042E0001B6893FAA3F207F17C031A6007F17C03C1
:1042F0001B68B3FA83F3DBB203F1845303F5841331
:104300009B001A4600231360FDF79CFBC7F8F801D9
:1043100009E0FDF797FB0246D7F8F831D31A022BD4
:1043200001D903238BE107F178034FF000721A6083
:1043300007F178031B6893FAA3F207F174031A607C
:1043400007F174031B68B3FA83F3DBB25B09DBB2DA
:1043500043F00103DBB2012B02D1494B1B681BE088
:1043600007F170034FF000721A6007F170031B68C9
:1043700093FAA3F207F16C031A6007F168034FF098
:1043800000721A6007F168031B6893FAA3F207F141
:1043900064031A603A4B5B6A07F160024FF00071E8
:1043A000116007F16002126892FAA2F107F15C0253
:1043B000116007F15C021268B2FA82F2D2B242F0E6
:1043C0002002D2B202F01F02012101FA02F21340D0
:1043D000002B9ED12A4B5B6823F474123B1D1B6893
:1043E000596A3B1D1B681B6A0B43254913434B60ED
:1043F00007F158034FF080721A6007F158031B68E9
:1044000093FAA3F207F154031A6007F154031B68EF
:10441000B3FA83F3DBB203F1845303F584139B00F7
:104420001A4601231360FDF70DFBC7F8F80109E0F8
:10443000FDF708FB0246D7F8F831D31A022B01D951
:104440000323FCE007F150034FF000721A6007F1FC
:1044500050031B6893FAA3F207F14C031A6007F1AB
:104460004C031B68B3FA83F3DBB25B09DBB243F0A6
:104470000103DBB2012B05D1014B1B681EE000BF1D
:104480000010024007F148034FF000721A6007F174
:1044900048031B6893FAA3F207F144031A6007F17B
:1044A00040034FF000721A6007F140031B6893FA53
:1044B000A3F207F13C031A60634B5B6A07F1380211
:1044C0004FF00071116007F13802126892FAA2F100
:1044D00007F13402116007F134021268B2FA82F275
:1044E000D2B242F02002D2B202F01F02012101FA40
:1044F00002F21340002B9BD0A0E007F130034FF0F5
:1045000080721A6007F130031B6893FAA3F207F177
:104510002C031A6007F12C031B68B3FA83F3DBB298
:1045200003F1845303F584139B001A4600231360A0
:10453000FDF788FAC7F8F80109E0FDF783FA0246AB
:10454000D7F8F831D31A022B01D9032377E007F10A
:1045500028034FF000721A6007F128031B6893FAD2
:10456000A3F207F124031A6007F124031B68B3FACE
:1045700083F3DBB25B09DBB243F00103DBB2012B57
:1045800002D1314B1B681BE007F120034FF0007292
:104590001A6007F120031B6893FAA3F207F11C03CA
:1045A0001A6007F118034FF000721A6007F1180340
:1045B0001B6893FAA3F207F114031A60224B5B6A9B
:1045C00007F110024FF00071116007F1100212683C
:1045D00092FAA2F107F10C02116007F10C021268C5
:1045E000B2FA82F2D2B242F02002D2B202F01F023C
:1045F000012101FA02F21340002B9ED11EE03B1D67
:104600001B68DB69012B01D1012318E00E4B5B68AD
:10461000C7F8F431D7F8F43103F480323B1D1B683E
:104620001B6A9A4208D1D7F8F43103F470123B1D8B
:104630001B685B6A9A4201D0012300E00023184600
:1046400007F50077BD4680BD0010024080B59EB0E2
:1046500000AF7860396000237B677B68002B01D155
:10466000012362E1904B1B6803F007033A689A420A
:1046700010D98D4B1B6823F007028B493B6813430D
:104680000B60894B1B6803F007033A689A4201D01C
:1046900001234AE17B681B6803F00203002B08D06A
:1046A000824B5B6823F0F0027B689B687F49134371
:1046B0004B607B681B6803F00103002B00F0DC807B
:1046C0007B685B68012B3CD14FF400333B673B6F49
:1046D00093FAA3F3FB66FB6EB3FA83F3DBB25B09D9
:1046E000DBB243F00103DBB2012B02D16F4B1B683D
:1046F0000FE04FF40033BB66BB6E93FAA3F37B6607
:104700004FF400333B663B6E93FAA3F3FB65674BB4
:104710005B6A4FF40032BA65BA6D92FAA2F27A651A
:104720007A6DB2FA82F2D2B242F02002D2B202F034
:104730001F02012101FA02F21340002B7BD1012359
:10474000F3E07B685B68022B3CD14FF000733B6564
:104750003B6D93FAA3F3FB64FB6CB3FA83F3DBB218
:104760005B09DBB243F00103DBB2012B02D14F4BFB
:104770001B680FE04FF00073BB64BB6C93FAA3F3AC
:104780007B644FF000733B643B6C93FAA3F3FB63D1
:10479000464B5B6A4FF00072BA63BA6B92FAA2F2B0
:1047A0007A637A6BB2FA82F2D2B242F02002D2B2CB
:1047B00002F01F02012101FA02F21340002B3AD14C
:1047C0000123B2E002233B633B6B93FAA3F3FB624A
:1047D000FB6AB3FA83F3DBB25B09DBB243F001039C
:1047E000DBB2012B02D1314B1B680DE00223BB620F
:1047F000BB6A93FAA3F37B6202233B623B6A93FAA0
:10480000A3F3FB61294B5B6A0222BA61BA6992FA8F
:10481000A2F27A617A69B2FA82F2D2B242F020024E
:10482000D2B202F01F02012101FA02F21340002B62
:1048300001D1012379E01D4B5B6823F003027B6803
:104840005B681A4913434B60FDF7FCF878670AE090
:10485000FDF7F8F802467B6FD31A41F28832934293
:1048600001D9032361E0114B5B6803F00C027B6804
:104870005B689B009A42EBD10B4B1B6803F007036C
:104880003A689A4214D2084B1B6823F00702064983
:104890003B6813430B60044B1B6803F007033A6843
:1048A0009A4205D0012340E000200240001002405F
:1048B0007B681B6803F00403002B08D01D4B5B686A
:1048C00023F4E0627B68DB681A4913434B607B6822
:1048D0001B6803F00803002B09D0164B5B6823F418
:1048E00060527B681B69DB00124913434B6000F088
:1048F00029F801460F4B5B6803F0F003F0223A61A0
:104900003A6992FAA2F2FA60FA68B2FA82F2D2B284
:10491000D340094AD35C21FA03F3084A1360084BD9
:104920001B681846FDF74AF8002318467837BD463D
:1049300080BD00BF00100240B8D600080000002073
:104940000400002080B48BB000AF0023FB61002383
:10495000BB6100237B6200237B6100233B62294B08
:104960005B68FB61FB6903F00C03042B02D0082B8E
:1049700003D03CE0244B3B623CE0FB6903F4701342
:104980004FF47012BA60BA6892FAA2F27A607A684A
:10499000B2FA82F2D2B2D3401C4AD35C7B61194B8B
:1049A000DB6A03F00F030F223A613A6992FAA2F22E
:1049B000FA60FA68B2FA82F2D2B2D340144AD35CF7
:1049C000BB61FB6903F48033002B08D00E4ABB693E
:1049D000B2FBF3F27B6902FB03F37B6204E07B69C9
:1049E0000C4A02FB03F37B627B6A3B6202E0064BEC
:1049F0003B6200BF3B6A18462C37BD465DF8047B1E
:104A0000704700BF0010024000127A00C8D60008AC
:104A1000D8D6000800093D0080B592B000AF78609C
:104A200000233B640023FB63002387F847307B6847
:104A30001B6803F48033002B00F0D4804E4BDB69FD
:104A400003F08053002B0ED14B4BDB694A4A43F0F5
:104A50008053D361484BDB6903F08053BB60BB6874
:104A6000012387F84730454B1B6803F48073002B04
:104A700018D1424B1B68414A43F480731360FCF722
:104A8000E1FF386408E0FCF7DDFF02463B6CD31A17
:104A9000642B01D9032369E1384B1B6803F480734D
:104AA000002BF0D0344B1B6A03F44073FB63FB6BA9
:104AB000002B00F084807B685B6803F44073FA6B22
:104AC0009A427CD02C4B1B6A23F44073FB634FF457
:104AD00080333B633B6B93FAA3F3FB62FB6AB3FA4D
:104AE00083F3DBB21A46264B13449B001A4601237C
:104AF00013604FF48033BB63BB6B93FAA3F37B6308
:104B00007B6BB3FA83F3DBB21A461D4B13449B0055
:104B10001A4600231360184AFB6B1362FB6B03F009
:104B20000103002B4BD0FCF78DFF38640AE0FCF743
:104B300089FF02463B6CD31A41F28832934201D975
:104B4000032313E10223BB62BB6A93FAA3F37B62E4
:104B500002233B623B6A93FAA3F3FB61FB69B3FA5E
:104B600083F3DBB25B09DBB243F00203DBB2022B5F
:104B700008D1014B1B6A0DE000100240007000409C
:104B8000008190100223BB61BB6993FAA3F37B61A0
:104B9000784B5B6A02223A613A6992FAA2F2FA60B1
:104BA000FA68B2FA82F2D2B242F04002D2B202F015
:104BB0001F02012101FA02F21340002BB7D06D4B06
:104BC0001B6A23F440727B685B686A4913430B627B
:104BD00097F84730012B05D1664BDB69654A23F016
:104BE0008053D3617B681B6803F00103002B08D05E
:104BF000604B1B6B23F003027B689B685D4913438A
:104C00000B637B681B6803F00203002B08D0594B31
:104C10001B6B23F440327B68DB68564913430B63FC
:104C20007B681B6803F00403002B08D0514B1B6BFF
:104C300023F440227B681B694E4913430B637B6856
:104C40001B6803F02003002B08D04A4B1B6B23F09A
:104C500010027B68DB69474913430B637B681B6861
:104C600003F40033002B08D0424B5B6823F480022E
:104C70007B689B6B3F4913434B607B681B6803F069
:104C80004003002B08D03B4B1B6B23F020027B68BA
:104C90001B6A384913430B637B681B6803F00803E6
:104CA000002B08D0334B1B6B23F440127B685B69ED
:104CB000304913430B637B681B6803F01003002B20
:104CC00008D02C4B1B6B23F440027B689B6929495D
:104CD00013430B637B681B6803F40073002B08D03D
:104CE000244B5B6823F400027B68DB6A2149134391
:104CF0004B607B681B6803F08003002B08D01D4BC2
:104D0000DB6A23F4F8727B685B6A1A491343CB624F
:104D10007B681B6803F48073002B08D0154BDB6A9B
:104D200023F478527B689B6A12491343CB627B68F9
:104D30001B6803F48053002B08D00E4B1B6B23F42D
:104D400080727B681B6B0B4913430B637B681B688A
:104D500003F40053002B08D0064B1B6B23F40072A6
:104D60007B685B6B034913430B630023184648378A
:104D7000BD4680BD0010024080B584B000AF7860B1
:104D80007B68002B01D101239DE07B685B6A002BCF
:104D900008D17B685B68B3F5827F09D07B6800220D
:104DA000DA6105E07B6800221A617B6800225A61A3
:104DB0007B6800229A627B6893F85D30DBB2002B3F
:104DC00006D17B68002283F85C207868FCF7D8FC69
:104DD0007B68022283F85D207B681B681A687B6809
:104DE0001B6822F040021A607B68DB68B3F5E06F55
:104DF00002D90023FB6002E04FF48053FB607B6824
:104E0000DB68B3F5706F07D07B68DB68B3F5E06FE4
:104E100002D07B6800229A627B685B6803F482722E
:104E20007B689B6803F404431A437B681B6903F0A7
:104E300002031A437B685B6903F001031A437B6832
:104E40009B6903F400731A437B68DB6903F0380342
:104E50001A437B681B6A03F0800342EA03017B6804
:104E60009B6A03F400527B681B680A431A607B68E4
:104E70009B691B0C03F004027B685B6A03F0100360
:104E80001A437B685B6B03F008031A437B68DB689B
:104E900003F4706342EA0301FB6803F480527B6809
:104EA0001B680A435A607B681B68DA697B681B6869
:104EB00022F40062DA617B6800221A667B680122B4
:104EC00083F85D20002318461037BD4680BD80B5AD
:104ED00088B000AFF860B9603B601346FB800023E8
:104EE000FB77FB6893F85C30012B01D1022358E17A
:104EF000FB68012283F85C20FCF7A4FDB861FB8805
:104F0000FB82FB6893F85D30DBB2012B02D00223F9
:104F1000FB773DE1BB68002B02D0FB88002B02D160
:104F20000123FB7734E1FB68032283F85D20FB68F3
:104F300000221A66FB68BA689A63FB68FA889A8747
:104F4000FB68FA88DA87FB6800221A64FB68002293
:104F5000A3F84420FB680022A3F84620FB68002247
:104F60001A65FB680022DA64FB689B68B3F5004FA2
:104F70000FD1FB681B681A68FB681B6822F04002AF
:104F80001A60FB681B681A68FB681B6842F4804261
:104F90001A60FB681B681B6803F04003402B07D0B6
:104FA000FB681B681A68FB681B6842F040021A60C5
:104FB000FB68DB68B3F5E06F4BD9FB685B68002BDF
:104FC00002D0FB8A012B3ED1FB689B6B1A88FB68E1
:104FD0001B68DA60FB689B6B9A1CFB689A63FB6832
:104FE000DB8F9BB2013B9AB2FB68DA872BE0FB6850
:104FF0001B689B6803F00203022B12D1FB689B6BBA
:105000001A88FB681B68DA60FB689B6B9A1CFB685C
:105010009A63FB68DB8F9BB2013B9AB2FB68DA872D
:1050200011E0FCF70FFD0246BB69D31A3A689A42B9
:1050300003D83B68B3F1FF3F02D13B68002B02D19C
:105040000323FB77A4E0FB68DB8F9BB2002BCED160
:105050007CE0FB685B68002B02D0FB8A012B70D1DF
:10506000FB68DB8F9BB2012B12D9FB689B6B1A8804
:10507000FB681B68DA60FB689B6B9A1CFB689A6391
:10508000FB68DB8F9BB2023B9AB2FB68DA8758E081
:10509000FB689A6BFB681B680C3312781A70FB680C
:1050A0009B6B5A1CFB689A63FB68DB8F9BB2013BCE
:1050B0009AB2FB68DA8744E0FB681B689B6803F0E0
:1050C0000203022B2BD1FB68DB8F9BB2012B12D981
:1050D000FB689B6B1A88FB681B68DA60FB689B6B3C
:1050E0009A1CFB689A63FB68DB8F9BB2023B9AB207
:1050F000FB68DA8725E0FB689A6BFB681B680C335A
:1051000012781A70FB689B6B5A1CFB689A63FB68E9
:10511000DB8F9BB2013B9AB2FB68DA8711E0FCF7A8
:1051200091FC0246BB69D31A3A689A4203D83B689D
:10513000B3F1FF3F02D13B68002B02D10323FB7781
:1051400026E0FB68DB8F9BB2002BB5D1BA693968CA
:10515000F86800F0DBFC0346002B02D0FB6820223D
:105160001A66FB689B68002B0AD100233B61FB6831
:105170001B68DB683B61FB681B689B683B613B69A4
:10518000FB681B6E002B02D00123FB7700E000BF01
:10519000FB68012283F85D20FB68002283F85C2015
:1051A000FB7F18462037BD4680BD80B588B002AF72
:1051B000F860B9603B601346FB800023FB75FB6819
:1051C0005B68B3F5827F12D1FB689B68002B0ED120
:1051D000FB68042283F85D20FA883B68009313463D
:1051E000BA68B968F86800F010F9034609E1FB688D
:1051F00093F85C30012B01D1022302E1FB6801220C
:1052000083F85C20FCF71EFC3861FB6893F85D3086
:10521000DBB2012B02D00223FB75E9E0BB68002B57
:1052200002D0FB88002B02D10123FB75E0E0FB6874
:10523000042283F85D20FB6800221A66FB68BA68C6
:105240001A64FB68FA88A3F84420FB68FA88A3F87C
:105250004620FB6800229A63FB6800229A87FB685D
:105260000022DA87FB680022DA64FB6800221A65F4
:10527000FB68DB68B3F5E06F08D9FB681B685A6808
:10528000FB681B6822F480525A6007E0FB681B68C9
:105290005A68FB681B6842F480525A60FB689B683E
:1052A000B3F5004F0FD1FB681B681A68FB681B68D9
:1052B00022F040021A60FB681B681A68FB681B68D2
:1052C00022F480421A60FB681B681B6803F04003ED
:1052D000402B07D0FB681B681A68FB681B6842F00C
:1052E00040021A60FB68DB68B3F5E06F67D830E016
:1052F000FB681B689B6803F00103012B17D1FB6857
:105300001B6803F10C02FB681B6C1278D2B21A7096
:10531000FB681B6C5A1CFB681A64FB68B3F84630C8
:105320009BB2013B9AB2FB68A3F8462011E0FCF760
:1053300089FB02463B69D31A3A689A4203D83B6814
:10534000B3F1FF3F02D13B68002B02D10323FB7571
:105350004EE0FB68B3F846309BB2002BC8D134E076
:10536000FB681B689B6803F00103012B15D1FB68E8
:105370001B68DA68FB681B6C92B21A80FB681B6CB6
:105380009A1CFB681A64FB68B3F846309BB2013B79
:105390009AB2FB68A3F8462011E0FCF753FB0246E3
:1053A0003B69D31A3A689A4203D83B68B3F1FF3F8E
:1053B00002D13B68002B02D10323FB7518E0FB6888
:1053C000B3F846309BB2002BCAD13A693968F86805
:1053D00000F044FB0346002B02D0FB6820221A6633
:1053E000FB681B6E002B02D00123FB7500E000BFA1
:1053F000FB68012283F85D20FB68002283F85C20B3
:10540000FB7D18461837BD4680BD80B58AB000AF19
:10541000F860B9607A607B8001237B62002387F8A3
:105420002330FB6893F85C30012B01D10223FBE1B0
:10543000FB68012283F85C20FCF704FBF861FB6841
:1054400093F85D30FB76FB685B687B617B887B82D1
:105450007B883B82FB7E012B0ED07B69B3F5827F7C
:1054600006D1FB689B68002B02D1FB7E042B03D086
:10547000022387F82330CDE1BB68002B05D07B6881
:10548000002B02D07B88002B03D1012387F8233027
:10549000C0E1FB6893F85D30DBB2042B03D0FB68FE
:1054A000052283F85D20FB6800221A66FB687A6893
:1054B0001A64FB687A88A3F84620FB687A88A3F808
:1054C0004420FB68BA689A63FB687A88DA87FB68CD
:1054D0007A889A87FB680022DA64FB6800221A65E2
:1054E000FB68DB68B3F5E06F02D83B8A012B08D973
:1054F000FB681B685A68FB681B6822F480525A607C
:1055000007E0FB681B685A68FB681B6842F480521E
:105510005A60FB681B681B6803F04003402B07D0F0
:10552000FB681B681A68FB681B6842F040021A603F
:10553000FB68DB68B3F5E06F7CD9FB685B68002B28
:1055400002D07B8A012B69D1FB689B6B1A88FB68B0
:105550001B68DA60FB689B6B9A1CFB689A63FB68AC
:10556000DB8F9BB2013B9AB2FB68DA8756E0FB689F
:105570001B689B6803F00203022B1BD1FB68DB8FC7
:105580009BB2002B16D07B6A012B13D1FB689B6B5F
:105590001A88FB681B68DA60FB689B6B9A1CFB68C7
:1055A0009A63FB68DB8F9BB2013B9AB2FB68DA8798
:1055B00000237B62FB681B689B6803F00103012BDF
:1055C0001CD1FB68B3F846309BB2002B16D0FB68A9
:1055D0001B68DA68FB681B6C92B21A80FB681B6C54
:1055E0009A1CFB681A64FB68B3F846309BB2013B17
:1055F0009AB2FB68A3F8462001237B62FCF722FAEB
:105600000246FB69D31A3A6B9A4207D83B6BB3F157
:10561000FF3F03D0032387F82330FBE0FB68DB8FD9
:105620009BB2002BA3D1FB68B3F846309BB2002B92
:105630009DD1DFE0FB685B68002B03D07B8A012BE8
:1056400040F0CB80FB68DB8F9BB2012B12D9FB684B
:105650009B6B1A88FB681B68DA60FB689B6B9A1C63
:10566000FB689A63FB68DB8F9BB2023B9AB2FB68D4
:10567000DA87B2E0FB689A6BFB681B680C33127820
:105680001A70FB689B6B5A1CFB689A63FB68DB8F84
:105690009BB2013B9AB2FB68DA879EE0FB681B680D
:1056A0009B6803F00203022B34D1FB68DB8F9BB2B3
:1056B000002B2FD07B6A012B2CD1FB68DB8F9BB298
:1056C000012B12D9FB689B6B1A88FB681B68DA6098
:1056D000FB689B6B9A1CFB689A63FB68DB8F9BB231
:1056E000023B9AB2FB68DA8712E0FB689A6BFB68B0
:1056F0001B680C3312781A70FB689B6B5A1CFB6892
:105700009A63FB68DB8F9BB2013B9AB2FB68DA8736
:1057100000237B62FB681B689B6803F00103012B7D
:1057200048D1FB68B3F846309BB2002B42D0FB68EF
:10573000B3F846309BB2012B23D9FB681B68DA68AB
:10574000FB681B6C92B21A80FB681B6C9A1CFB688E
:105750001A64FB68B3F846309BB2023B9AB2FB680E
:10576000A3F84620FB68B3F846309BB2012B1FD844
:10577000FB681B685A68FB681B6842F480525A60D9
:1057800016E0FB681B6803F10C02FB681B6C1278C7
:10579000D2B21A70FB681B6C5A1CFB681A64FB6857
:1057A000B3F846309BB2013B9AB2FB68A3F846209F
:1057B00001237B62FCF746F90246FB69D31A3A6B78
:1057C0009A4203D83B6BB3F1FF3F02D13B6B002BF6
:1057D00003D1032387F823301CE0FB68DB8F9BB2E7
:1057E000002B7FF45BAFFB68B3F846309BB2002B15
:1057F0007FF454AFFA69396BF86800F087F9034613
:10580000002B06D0012387F82330FB6820221A667C
:1058100000E000BFFB68012283F85D20FB680022E6
:1058200083F85C2097F8233018462837BD4680BDA2
:1058300080B588B000AFF860B9603B601346FB717B
:10584000FCF700F90246BB6A9B1A3A681344FB61F5
:10585000FCF7F8F8B861394B1B685B011B0DFA695E
:1058600002FB03F37B6154E03B68B3F1FF3F50D090
:10587000FCF7E8F80246BB69D31AFA699A4202D9E2
:10588000FB69002B3DD1FB681B685A68FB681B68ED
:1058900022F0E0025A60FB685B68B3F5827F11D1A9
:1058A000FB689B68B3F5004F04D0FB689B68B3F5B9
:1058B000806F07D1FB681B681A68FB681B6822F0C1
:1058C00040021A60FB689B6AB3F5005F0FD1FB686A
:1058D0001B681A68FB681B6822F400521A60FB6898
:1058E0001B681A68FB681B6842F400521A60FB6868
:1058F000012283F85D20FB68002283F85C200323EB
:1059000017E07B69002B01D10023FB617B69013B20
:105910007B61FB681B689A68BB681340BA689A424F
:105920000CBF01230023DBB21A46FB799A429BD1BC
:10593000002318462037BD4680BD00BF0000002070
:1059400080B588B000AFF860B9607A603B60FCF762
:1059500079F80246BB6A9B1A3A681344FB61FCF76C
:1059600071F8B8613C4B1A6813469B001344DA0087
:10597000D31A1B0DFA6902FB03F37B615FE0BB687E
:10598000B3F5C06F06D17B68002B03D1FB681B68A1
:105990000C331B783B68B3F1FF3F50D0FCF752F853
:1059A0000246BB69D31AFA699A4202D9FB69002BF5
:1059B0003DD1FB681B685A68FB681B6822F0E00257
:1059C0005A60FB685B68B3F5827F11D1FB689B6806
:1059D000B3F5004F04D0FB689B68B3F5806F07D127
:1059E000FB681B681A68FB681B6822F040021A609B
:1059F000FB689B6AB3F5005F0FD1FB681B681A68F0
:105A0000FB681B6822F400521A60FB681B681A6866
:105A1000FB681B6842F400521A60FB68012283F89D
:105A20005D20FB68002283F85C20032310E07B6983
:105A3000002B01D10023FB617B69013B7B61FB688B
:105A40001B689A68BB6813407A689A4297D1002312
:105A500018462037BD4680BD0000002080B586B0C6
:105A600002AFF860B9607A60FB685B68B3F5827F6B
:105A700011D1FB689B68B3F5004F04D0FB689B68AD
:105A8000B3F5806F07D1FB681B681A68FB681B6859
:105A900022F040021A607B680093BB6800228021DC
:105AA000F868FFF7C5FE0346002B07D0FB681B6EA6
:105AB00043F02002FB681A66032323E0FB685B685F
:105AC000B3F5827F1DD1FB689B68B3F5004F04D00E
:105AD000FB689B68B3F5806F13D17B680093BB684C
